{
    "contractName": "Cashier",
    "abi": [
        {
            "constant": true,
            "inputs": [],
            "name": "getCoins",
            "outputs": [
                {
                    "internalType": "uint256",
                    "name": "",
                    "type": "uint256"
                }
            ],
            "payable": false,
            "stateMutability": "view",
            "type": "function"
        },
        {
            "constant": false,
            "inputs": [
                {
                    "internalType": "uint256",
                    "name": "_coinChange",
                    "type": "uint256"
                }
            ],
            "name": "_setCoinChange",
            "outputs": [],
            "payable": false,
            "stateMutability": "nonpayable",
            "type": "function"
        },
        {
            "constant": false,
            "inputs": [],
            "name": "withdraw",
            "outputs": [],
            "payable": false,
            "stateMutability": "nonpayable",
            "type": "function"
        },
        {
            "constant": false,
            "inputs": [],
            "name": "getRandomCard",
            "outputs": [],
            "payable": false,
            "stateMutability": "nonpayable",
            "type": "function"
        },
        {
            "constant": false,
            "inputs": [],
            "name": "renounceOwnership",
            "outputs": [],
            "payable": false,
            "stateMutability": "nonpayable",
            "type": "function"
        },
        {
            "constant": false,
            "inputs": [],
            "name": "newPlayer",
            "outputs": [],
            "payable": true,
            "stateMutability": "payable",
            "type": "function"
        },
        {
            "constant": true,
            "inputs": [],
            "name": "owner",
            "outputs": [
                {
                    "internalType": "address",
                    "name": "",
                    "type": "address"
                }
            ],
            "payable": false,
            "stateMutability": "view",
            "type": "function"
        },
        {
            "constant": true,
            "inputs": [],
            "name": "isOwner",
            "outputs": [
                {
                    "internalType": "bool",
                    "name": "",
                    "type": "bool"
                }
            ],
            "payable": false,
            "stateMutability": "view",
            "type": "function"
        },
        {
            "constant": false,
            "inputs": [
                {
                    "internalType": "address[]",
                    "name": "_addr",
                    "type": "address[]"
                }
            ],
            "name": "getWinner",
            "outputs": [
                {
                    "internalType": "address[]",
                    "name": "",
                    "type": "address[]"
                }
            ],
            "payable": false,
            "stateMutability": "nonpayable",
            "type": "function"
        },
        {
            "constant": false,
            "inputs": [],
            "name": "deposit",
            "outputs": [],
            "payable": true,
            "stateMutability": "payable",
            "type": "function"
        },
        {
            "constant": false,
            "inputs": [
                {
                    "internalType": "address",
                    "name": "newOwner",
                    "type": "address"
                }
            ],
            "name": "transferOwnership",
            "outputs": [],
            "payable": false,
            "stateMutability": "nonpayable",
            "type": "function"
        },
        {
            "constant": true,
            "inputs": [
                {
                    "internalType": "uint256",
                    "name": "",
                    "type": "uint256"
                }
            ],
            "name": "players",
            "outputs": [
                {
                    "internalType": "uint256",
                    "name": "coins",
                    "type": "uint256"
                },
                {
                    "internalType": "uint8",
                    "name": "card",
                    "type": "uint8"
                }
            ],
            "payable": false,
            "stateMutability": "view",
            "type": "function"
        },
        {
            "anonymous": false,
            "inputs": [
                {
                    "indexed": false,
                    "internalType": "address",
                    "name": "addr",
                    "type": "address"
                },
                {
                    "indexed": false,
                    "internalType": "uint8",
                    "name": "card",
                    "type": "uint8"
                }
            ],
            "name": "newCard",
            "type": "event"
        },
        {
            "anonymous": false,
            "inputs": [
                {
                    "indexed": false,
                    "internalType": "address",
                    "name": "addr",
                    "type": "address"
                },
                {
                    "indexed": false,
                    "internalType": "uint256",
                    "name": "coins",
                    "type": "uint256"
                }
            ],
            "name": "NewPlayer",
            "type": "event"
        },
        {
            "anonymous": false,
            "inputs": [
                {
                    "indexed": true,
                    "internalType": "address",
                    "name": "previousOwner",
                    "type": "address"
                },
                {
                    "indexed": true,
                    "internalType": "address",
                    "name": "newOwner",
                    "type": "address"
                }
            ],
            "name": "OwnershipTransferred",
            "type": "event"
        }
    ],
    "bytecode": "608060408190526034600155600a60025560646003556000600781905580546001600160a01b03191633178082556001600160a01b0316917f8be0079c531659141344cd1fd0a4f28419497f9722a3daafe3b4186f6b6457e0908290a3610ecf8061006b6000396000f3fe6080604052600436106100a75760003560e01c80638da5cb5b116100645780638da5cb5b146101465780638f32d59b14610177578063954c18d2146101a0578063d0e30db0146102a0578063f2fde38b146102a8578063f71d96cb146102db576100a7565b806313c390ef146100ac5780632bf3312e146100d35780633ccfd60b146100ff57806351f5ee0214610114578063715018a61461012957806375479c341461013e575b600080fd5b3480156100b857600080fd5b506100c1610320565b60408051918252519081900360200190f35b3480156100df57600080fd5b506100fd600480360360208110156100f657600080fd5b5035610356565b005b34801561010b57600080fd5b506100fd61036c565b34801561012057600080fd5b506100fd61045d565b34801561013557600080fd5b506100fd610648565b6100fd6106a3565b34801561015257600080fd5b5061015b6107a7565b604080516001600160a01b039092168252519081900360200190f35b34801561018357600080fd5b5061018c6107b6565b604080519115158252519081900360200190f35b3480156101ac57600080fd5b50610250600480360360208110156101c357600080fd5b8101906020810181356401000000008111156101de57600080fd5b8201836020820111156101f057600080fd5b8035906020019184602083028401116401000000008311171561021257600080fd5b9190808060200260200160405190810160405280939291908181526020018383602002808284376000920191909152509295506107c7945050505050565b60408051602080825283518183015283519192839290830191858101910280838360005b8381101561028c578181015183820152602001610274565b505050509050019250505060405180910390f35b6100fd610b6f565b3480156102b457600080fd5b506100fd600480360360208110156102cb57600080fd5b50356001600160a01b0316610be8565b3480156102e757600080fd5b50610305600480360360208110156102fe57600080fd5b5035610c02565b6040805192835260ff90911660208301528051918290030190f35b3360009081526005602052604081205460048054909190811061033f57fe5b906000526020600020906002020160000154905090565b61035e6107b6565b61036757600080fd5b600255565b3360008181526005602052604081205460048054839290811061038b57fe5b90600052602060002090600202016000015410156103e6576040805162461bcd60e51b815260206004820152601360248201527224b739bab33334b1b4b2b73a10333ab732399760691b604482015290519081900360640190fd5b3360009081526005602052604081205460048054909190811061040557fe5b600091825260208220600290910201546040519092503391662386f26fc10000840280156108fc02929091818181858888f1935050505015801561044d573d6000803e3d6000fd5b506104583382610c30565b505050565b6002543360009081526005602052604090205460048054909190811061047f57fe5b90600052602060002090600202016000015410156104db576040805162461bcd60e51b8152602060048201526014602482015273496e73756666696369656e742062616c616e636560601b604482015290519081900360640190fd5b600780546001908101918290555460408051426020808301919091523360601b828401526054808301959095528251808303909501855260749091019091528251920191909120600091908161052d57fe5b0660010190505b60ff8082166000908152600860205260409020541615156001146105ab57600780546001908101918290555460408051426020808301919091523360601b828401526054808301959095528251808303909501855260749091019091528251920191909120816105a057fe5b066001019050610534565b60ff81166000908152600860209081526040808320805460ff1916600117905533835260059091529020546004805483929081106105e557fe5b600091825260209182902060029190910201600101805460ff191660ff938416179055604080513381529284169183019190915280517fdf75c2b0d26e5809dd27dc43c8fa1886221c1a59b3ee33775901d391405cdb759281900390910190a150565b6106506107b6565b61065957600080fd5b600080546040516001600160a01b03909116907f8be0079c531659141344cd1fd0a4f28419497f9722a3daafe3b4186f6b6457e0908390a3600080546001600160a01b0319169055565b600160005b6004548110156106e2576000818152600660205260409020546001600160a01b03163314156106da57600091506106e2565b6001016106a8565b5060018115151461072b576040805162461bcd60e51b815260206004820152600e60248201526d283630bcb2b91032bc34b9ba399760911b604482015290519081900360640190fd5b662386f26fc10000341015610780576040805162461bcd60e51b8152602060048201526016602482015275283630bcb2b91030b63932b0b23c9032bc34b9ba399760511b604482015290519081900360640190fd5b6000670de0b6b3a764000060035434028161079757fe5b0490506107a381610cf6565b5050565b6000546001600160a01b031690565b6000546001600160a01b0316331490565b60606000600190506000600d600460056000876000815181106107e657fe5b60200260200101516001600160a01b03166001600160a01b03168152602001908152602001600020548154811061081957fe5b600091825260209091206001600290920201015460ff168161083757fe5b0660010190506000805b85518160ff1610156108f4576000600d6004600560008a8660ff168151811061086657fe5b60200260200101516001600160a01b03166001600160a01b03168152602001908152602001600020548154811061089957fe5b600091825260209091206001600290920201015460ff16816108b757fe5b0660010190508360ff168160ff1611156108d6578093508194506108eb565b8360ff168160ff1614156108eb576001909201915b50600101610841565b5060018551038160ff16141561091e5750506040805160008152602081019091529150610b6a9050565b6060855160405190808252806020026020018201604052801561094b578160200160208202803883390190505b5090506000805b87518160ff161015610a2a576000600d6004600560008c8660ff168151811061097757fe5b60200260200101516001600160a01b03166001600160a01b0316815260200190815260200160002054815481106109aa57fe5b600091825260209091206001600290920201015460ff16816109c857fe5b0660010190508560ff168160ff161415610a2157888260ff16815181106109eb57fe5b6020026020010151848460ff1681518110610a0257fe5b6001600160a01b03909216602092830291909101909101526001909201915b50600101610952565b5060025460ff8216908102906000908281610a4157fe5b04905060005b89518160ff161015610b2e576000600d6004600560008e8660ff1681518110610a6c57fe5b60200260200101516001600160a01b03166001600160a01b031681526020019081526020016000205481548110610a9f57fe5b600091825260209091206001600290920201015460ff1681610abd57fe5b0660010190508760ff168160ff161415610afc5760ff8216600090815260066020526040902054610af7906001600160a01b031684610de9565b610b25565b60ff8216600090815260066020526040902054600254610b25916001600160a01b031690610c30565b50600101610a47565b5060015b60348160ff1611610b5f5760ff81166000908152600860205260409020805460ff19169055600101610b32565b509296505050505050505b919050565b662386f26fc10000341015610bc1576040805162461bcd60e51b815260206004820152601360248201527224b739bab33334b1b4b2b73a10333ab732399760691b604482015290519081900360640190fd5b6000670de0b6b3a7640000600354340281610bd857fe5b049050610be53382610de9565b50565b610bf06107b6565b610bf957600080fd5b610be581610e2c565b60048181548110610c0f57fe5b60009182526020909120600290910201805460019091015490915060ff1682565b33600090815260056020526040902054600480548492849283929091908110610c5557fe5b9060005260206000209060020201600001541015610cb0576040805162461bcd60e51b815260206004820152601360248201527224b739bab33334b1b4b2b73a10333ab732399760691b604482015290519081900360640190fd5b6001600160a01b038416600090815260056020526040902054600480548592908110610cd857fe5b60009182526020909120600290910201805491909103905550505050565b604080518082018252828152600060208083018281526004805460018101825581855294517f8a35acfbc15ff81a39ae7d344fd709f28e8600b4aa8c65c6b64bfe7fe36bd19b60029096029586015590517f8a35acfbc15ff81a39ae7d344fd709f28e8600b4aa8c65c6b64bfe7fe36bd19c909401805460ff191660ff909516949094179093558254338084526005835285842060001992830190559354018252600681529083902080546001600160a01b031916831790558251918252810183905281517f6b8fe0f067804a78a12efa88b8428446c8d8a703d5604dffc63ac27fcbdcfd0d929181900390910190a150565b6001600160a01b038216600090815260056020526040902054600480548392908110610e1157fe5b60009182526020909120600290910201805490910190555050565b6001600160a01b038116610e3f57600080fd5b600080546040516001600160a01b03808516939216917f8be0079c531659141344cd1fd0a4f28419497f9722a3daafe3b4186f6b6457e091a3600080546001600160a01b0319166001600160a01b039290921691909117905556fea265627a7a72315820d757571d7933f0a39efe4897f93c57758fd3b6f23b3c49586ea843fa0249418f64736f6c634300050b0032",
    "sourcePath": "/media/adityachandak/Local Disk/Projects/InOut/repo/doPatti/contracts/src/cashier.sol",
    "compiler": {
        "name": "solc",
        "version": "0.5.11+commit.c082d0b4"
    },
    "functionHashes": {
        "_setCoinChange(uint256)": "2bf3312e",
        "deposit()": "d0e30db0",
        "getCoins()": "13c390ef",
        "getRandomCard()": "51f5ee02",
        "getWinner(address[])": "954c18d2",
        "isOwner()": "8f32d59b",
        "newPlayer()": "75479c34",
        "owner()": "8da5cb5b",
        "players(uint256)": "f71d96cb",
        "renounceOwnership()": "715018a6",
        "transferOwnership(address)": "f2fde38b",
        "withdraw()": "3ccfd60b"
    },
    "gasEstimates": {
        "creation": {
            "codeDepositCost": "758200",
            "executionCost": "87572",
            "totalCost": "845772"
        },
        "external": {
            "_setCoinChange(uint256)": "20479",
            "deposit()": "21303",
            "getCoins()": "978",
            "getRandomCard()": "infinite",
            "getWinner(address[])": "infinite",
            "isOwner()": "449",
            "newPlayer()": "infinite",
            "owner()": "437",
            "players(uint256)": "1106",
            "renounceOwnership()": "22481",
            "transferOwnership(address)": "22646",
            "withdraw()": "infinite"
        }
    }
}