{
    "contractName": "PlayerHelper",
    "abi": [
        {
            "constant": true,
            "inputs": [],
            "name": "getCoins",
            "outputs": [
                {
                    "internalType": "uint256",
                    "name": "",
                    "type": "uint256"
                }
            ],
            "payable": false,
            "stateMutability": "view",
            "type": "function"
        },
        {
            "constant": false,
            "inputs": [
                {
                    "internalType": "uint256",
                    "name": "_coinChange",
                    "type": "uint256"
                }
            ],
            "name": "_setCoinChange",
            "outputs": [],
            "payable": false,
            "stateMutability": "nonpayable",
            "type": "function"
        },
        {
            "constant": false,
            "inputs": [],
            "name": "getRandomCard",
            "outputs": [],
            "payable": false,
            "stateMutability": "nonpayable",
            "type": "function"
        },
        {
            "constant": false,
            "inputs": [],
            "name": "renounceOwnership",
            "outputs": [],
            "payable": false,
            "stateMutability": "nonpayable",
            "type": "function"
        },
        {
            "constant": false,
            "inputs": [],
            "name": "newPlayer",
            "outputs": [],
            "payable": true,
            "stateMutability": "payable",
            "type": "function"
        },
        {
            "constant": true,
            "inputs": [],
            "name": "owner",
            "outputs": [
                {
                    "internalType": "address",
                    "name": "",
                    "type": "address"
                }
            ],
            "payable": false,
            "stateMutability": "view",
            "type": "function"
        },
        {
            "constant": true,
            "inputs": [],
            "name": "isOwner",
            "outputs": [
                {
                    "internalType": "bool",
                    "name": "",
                    "type": "bool"
                }
            ],
            "payable": false,
            "stateMutability": "view",
            "type": "function"
        },
        {
            "constant": false,
            "inputs": [
                {
                    "internalType": "address[]",
                    "name": "_addr",
                    "type": "address[]"
                }
            ],
            "name": "getWinner",
            "outputs": [
                {
                    "internalType": "address[]",
                    "name": "",
                    "type": "address[]"
                }
            ],
            "payable": false,
            "stateMutability": "nonpayable",
            "type": "function"
        },
        {
            "constant": false,
            "inputs": [
                {
                    "internalType": "address",
                    "name": "newOwner",
                    "type": "address"
                }
            ],
            "name": "transferOwnership",
            "outputs": [],
            "payable": false,
            "stateMutability": "nonpayable",
            "type": "function"
        },
        {
            "constant": true,
            "inputs": [
                {
                    "internalType": "uint256",
                    "name": "",
                    "type": "uint256"
                }
            ],
            "name": "players",
            "outputs": [
                {
                    "internalType": "uint256",
                    "name": "coins",
                    "type": "uint256"
                },
                {
                    "internalType": "uint8",
                    "name": "card",
                    "type": "uint8"
                }
            ],
            "payable": false,
            "stateMutability": "view",
            "type": "function"
        },
        {
            "anonymous": false,
            "inputs": [
                {
                    "indexed": false,
                    "internalType": "address",
                    "name": "addr",
                    "type": "address"
                },
                {
                    "indexed": false,
                    "internalType": "uint8",
                    "name": "card",
                    "type": "uint8"
                }
            ],
            "name": "newCard",
            "type": "event"
        },
        {
            "anonymous": false,
            "inputs": [
                {
                    "indexed": false,
                    "internalType": "address",
                    "name": "addr",
                    "type": "address"
                },
                {
                    "indexed": false,
                    "internalType": "uint256",
                    "name": "coins",
                    "type": "uint256"
                }
            ],
            "name": "NewPlayer",
            "type": "event"
        },
        {
            "anonymous": false,
            "inputs": [
                {
                    "indexed": true,
                    "internalType": "address",
                    "name": "previousOwner",
                    "type": "address"
                },
                {
                    "indexed": true,
                    "internalType": "address",
                    "name": "newOwner",
                    "type": "address"
                }
            ],
            "name": "OwnershipTransferred",
            "type": "event"
        }
    ],
    "bytecode": "608060408190526034600155600a60025560646003556000600781905580546001600160a01b03191633178082556001600160a01b0316917f8be0079c531659141344cd1fd0a4f28419497f9722a3daafe3b4186f6b6457e0908290a3610d358061006b6000396000f3fe6080604052600436106100915760003560e01c80638da5cb5b116100595780638da5cb5b1461011b5780638f32d59b1461014c578063954c18d214610175578063f2fde38b14610275578063f71d96cb146102a857610091565b806313c390ef146100965780632bf3312e146100bd57806351f5ee02146100e9578063715018a6146100fe57806375479c3414610113575b600080fd5b3480156100a257600080fd5b506100ab6102ed565b60408051918252519081900360200190f35b3480156100c957600080fd5b506100e7600480360360208110156100e057600080fd5b5035610323565b005b3480156100f557600080fd5b506100e7610339565b34801561010a57600080fd5b506100e7610524565b6100e761057f565b34801561012757600080fd5b50610130610683565b604080516001600160a01b039092168252519081900360200190f35b34801561015857600080fd5b50610161610692565b604080519115158252519081900360200190f35b34801561018157600080fd5b506102256004803603602081101561019857600080fd5b8101906020810181356401000000008111156101b357600080fd5b8201836020820111156101c557600080fd5b803590602001918460208302840111640100000000831117156101e757600080fd5b9190808060200260200160405190810160405280939291908181526020018383602002808284376000920191909152509295506106a3945050505050565b60408051602080825283518183015283519192839290830191858101910280838360005b83811015610261578181015183820152602001610249565b505050509050019250505060405180910390f35b34801561028157600080fd5b506100e76004803603602081101561029857600080fd5b50356001600160a01b0316610a4b565b3480156102b457600080fd5b506102d2600480360360208110156102cb57600080fd5b5035610a68565b6040805192835260ff90911660208301528051918290030190f35b3360009081526005602052604081205460048054909190811061030c57fe5b906000526020600020906002020160000154905090565b61032b610692565b61033457600080fd5b600255565b6002543360009081526005602052604090205460048054909190811061035b57fe5b90600052602060002090600202016000015410156103b7576040805162461bcd60e51b8152602060048201526014602482015273496e73756666696369656e742062616c616e636560601b604482015290519081900360640190fd5b600780546001908101918290555460408051426020808301919091523360601b828401526054808301959095528251808303909501855260749091019091528251920191909120600091908161040957fe5b0660010190505b60ff80821660009081526008602052604090205416151560011461048757600780546001908101918290555460408051426020808301919091523360601b8284015260548083019590955282518083039095018552607490910190915282519201919091208161047c57fe5b066001019050610410565b60ff81166000908152600860209081526040808320805460ff1916600117905533835260059091529020546004805483929081106104c157fe5b600091825260209182902060029190910201600101805460ff191660ff938416179055604080513381529284169183019190915280517fdf75c2b0d26e5809dd27dc43c8fa1886221c1a59b3ee33775901d391405cdb759281900390910190a150565b61052c610692565b61053557600080fd5b600080546040516001600160a01b03909116907f8be0079c531659141344cd1fd0a4f28419497f9722a3daafe3b4186f6b6457e0908390a3600080546001600160a01b0319169055565b600160005b6004548110156105be576000818152600660205260409020546001600160a01b03163314156105b657600091506105be565b600101610584565b50600181151514610607576040805162461bcd60e51b815260206004820152600e60248201526d283630bcb2b91032bc34b9ba399760911b604482015290519081900360640190fd5b662386f26fc1000034101561065c576040805162461bcd60e51b8152602060048201526016602482015275283630bcb2b91030b63932b0b23c9032bc34b9ba399760511b604482015290519081900360640190fd5b6000670de0b6b3a764000060035434028161067357fe5b04905061067f81610a96565b5050565b6000546001600160a01b031690565b6000546001600160a01b0316331490565b60606000600190506000600d600460056000876000815181106106c257fe5b60200260200101516001600160a01b03166001600160a01b0316815260200190815260200160002054815481106106f557fe5b600091825260209091206001600290920201015460ff168161071357fe5b0660010190506000805b85518160ff1610156107d0576000600d6004600560008a8660ff168151811061074257fe5b60200260200101516001600160a01b03166001600160a01b03168152602001908152602001600020548154811061077557fe5b600091825260209091206001600290920201015460ff168161079357fe5b0660010190508360ff168160ff1611156107b2578093508194506107c7565b8360ff168160ff1614156107c7576001909201915b5060010161071d565b5060018551038160ff1614156107fa5750506040805160008152602081019091529150610a469050565b60608551604051908082528060200260200182016040528015610827578160200160208202803883390190505b5090506000805b87518160ff161015610906576000600d6004600560008c8660ff168151811061085357fe5b60200260200101516001600160a01b03166001600160a01b03168152602001908152602001600020548154811061088657fe5b600091825260209091206001600290920201015460ff16816108a457fe5b0660010190508560ff168160ff1614156108fd57888260ff16815181106108c757fe5b6020026020010151848460ff16815181106108de57fe5b6001600160a01b03909216602092830291909101909101526001909201915b5060010161082e565b5060025460ff821690810290600090828161091d57fe5b04905060005b89518160ff161015610a0a576000600d6004600560008e8660ff168151811061094857fe5b60200260200101516001600160a01b03166001600160a01b03168152602001908152602001600020548154811061097b57fe5b600091825260209091206001600290920201015460ff168161099957fe5b0660010190508760ff168160ff1614156109d85760ff82166000908152600660205260409020546109d3906001600160a01b031684610b89565b610a01565b60ff8216600090815260066020526040902054600254610a01916001600160a01b031690610bcc565b50600101610923565b5060015b60348160ff1611610a3b5760ff81166000908152600860205260409020805460ff19169055600101610a0e565b509296505050505050505b919050565b610a53610692565b610a5c57600080fd5b610a6581610c92565b50565b60048181548110610a7557fe5b60009182526020909120600290910201805460019091015490915060ff1682565b604080518082018252828152600060208083018281526004805460018101825581855294517f8a35acfbc15ff81a39ae7d344fd709f28e8600b4aa8c65c6b64bfe7fe36bd19b60029096029586015590517f8a35acfbc15ff81a39ae7d344fd709f28e8600b4aa8c65c6b64bfe7fe36bd19c909401805460ff191660ff909516949094179093558254338084526005835285842060001992830190559354018252600681529083902080546001600160a01b031916831790558251918252810183905281517f6b8fe0f067804a78a12efa88b8428446c8d8a703d5604dffc63ac27fcbdcfd0d929181900390910190a150565b6001600160a01b038216600090815260056020526040902054600480548392908110610bb157fe5b60009182526020909120600290910201805490910190555050565b33600090815260056020526040902054600480548492849283929091908110610bf157fe5b9060005260206000209060020201600001541015610c4c576040805162461bcd60e51b815260206004820152601360248201527224b739bab33334b1b4b2b73a10333ab732399760691b604482015290519081900360640190fd5b6001600160a01b038416600090815260056020526040902054600480548592908110610c7457fe5b60009182526020909120600290910201805491909103905550505050565b6001600160a01b038116610ca557600080fd5b600080546040516001600160a01b03808516939216917f8be0079c531659141344cd1fd0a4f28419497f9722a3daafe3b4186f6b6457e091a3600080546001600160a01b0319166001600160a01b039290921691909117905556fea265627a7a723158202bcfec63f57d25ab430514bcf9c34d5c7a2be5d7d3f55bacb10230d1444ab08364736f6c634300050b0032",
    "sourcePath": "/media/adityachandak/Local Disk/Projects/InOut/repo/doPatti/contracts/src/playerhelper.sol",
    "compiler": {
        "name": "solc",
        "version": "0.5.11+commit.c082d0b4"
    },
    "functionHashes": {
        "_setCoinChange(uint256)": "2bf3312e",
        "getCoins()": "13c390ef",
        "getRandomCard()": "51f5ee02",
        "getWinner(address[])": "954c18d2",
        "isOwner()": "8f32d59b",
        "newPlayer()": "75479c34",
        "owner()": "8da5cb5b",
        "players(uint256)": "f71d96cb",
        "renounceOwnership()": "715018a6",
        "transferOwnership(address)": "f2fde38b"
    },
    "gasEstimates": {
        "creation": {
            "codeDepositCost": "676200",
            "executionCost": "87488",
            "totalCost": "763688"
        },
        "external": {
            "_setCoinChange(uint256)": "20479",
            "getCoins()": "978",
            "getRandomCard()": "infinite",
            "getWinner(address[])": "infinite",
            "isOwner()": "449",
            "newPlayer()": "infinite",
            "owner()": "437",
            "players(uint256)": "1084",
            "renounceOwnership()": "22459",
            "transferOwnership(address)": "22624"
        },
        "internal": {
            "_addCoins(address,uint256)": "20833",
            "_reduceCoins(address,uint256)": "infinite"
        }
    }
}