{
    "contractName": "PlayerFactory",
    "abi": [
        {
            "constant": true,
            "inputs": [],
            "name": "getCoins",
            "outputs": [
                {
                    "internalType": "uint256",
                    "name": "",
                    "type": "uint256"
                }
            ],
            "payable": false,
            "stateMutability": "view",
            "type": "function"
        },
        {
            "constant": false,
            "inputs": [
                {
                    "internalType": "uint256",
                    "name": "_coinChange",
                    "type": "uint256"
                }
            ],
            "name": "_setCoinChange",
            "outputs": [],
            "payable": false,
            "stateMutability": "nonpayable",
            "type": "function"
        },
        {
            "constant": false,
            "inputs": [],
            "name": "renounceOwnership",
            "outputs": [],
            "payable": false,
            "stateMutability": "nonpayable",
            "type": "function"
        },
        {
            "constant": false,
            "inputs": [],
            "name": "newPlayer",
            "outputs": [],
            "payable": true,
            "stateMutability": "payable",
            "type": "function"
        },
        {
            "constant": true,
            "inputs": [],
            "name": "owner",
            "outputs": [
                {
                    "internalType": "address",
                    "name": "",
                    "type": "address"
                }
            ],
            "payable": false,
            "stateMutability": "view",
            "type": "function"
        },
        {
            "constant": true,
            "inputs": [],
            "name": "isOwner",
            "outputs": [
                {
                    "internalType": "bool",
                    "name": "",
                    "type": "bool"
                }
            ],
            "payable": false,
            "stateMutability": "view",
            "type": "function"
        },
        {
            "constant": false,
            "inputs": [
                {
                    "internalType": "address",
                    "name": "newOwner",
                    "type": "address"
                }
            ],
            "name": "transferOwnership",
            "outputs": [],
            "payable": false,
            "stateMutability": "nonpayable",
            "type": "function"
        },
        {
            "constant": true,
            "inputs": [
                {
                    "internalType": "uint256",
                    "name": "",
                    "type": "uint256"
                }
            ],
            "name": "players",
            "outputs": [
                {
                    "internalType": "uint256",
                    "name": "coins",
                    "type": "uint256"
                },
                {
                    "internalType": "uint8",
                    "name": "card",
                    "type": "uint8"
                }
            ],
            "payable": false,
            "stateMutability": "view",
            "type": "function"
        },
        {
            "anonymous": false,
            "inputs": [
                {
                    "indexed": false,
                    "internalType": "address",
                    "name": "addr",
                    "type": "address"
                },
                {
                    "indexed": false,
                    "internalType": "uint256",
                    "name": "coins",
                    "type": "uint256"
                }
            ],
            "name": "NewPlayer",
            "type": "event"
        },
        {
            "anonymous": false,
            "inputs": [
                {
                    "indexed": true,
                    "internalType": "address",
                    "name": "previousOwner",
                    "type": "address"
                },
                {
                    "indexed": true,
                    "internalType": "address",
                    "name": "newOwner",
                    "type": "address"
                }
            ],
            "name": "OwnershipTransferred",
            "type": "event"
        }
    ],
    "bytecode": "608060408190526034600155600a6002556064600355600080546001600160a01b03191633178082556001600160a01b0316917f8be0079c531659141344cd1fd0a4f28419497f9722a3daafe3b4186f6b6457e0908290a361056e806100666000396000f3fe60806040526004361061007b5760003560e01c80638da5cb5b1161004e5780638da5cb5b146100f05780638f32d59b14610121578063f2fde38b1461014a578063f71d96cb1461017d5761007b565b806313c390ef146100805780632bf3312e146100a7578063715018a6146100d357806375479c34146100e8575b600080fd5b34801561008c57600080fd5b506100956101c2565b60408051918252519081900360200190f35b3480156100b357600080fd5b506100d1600480360360208110156100ca57600080fd5b50356101f8565b005b3480156100df57600080fd5b506100d161020e565b6100d1610269565b3480156100fc57600080fd5b5061010561036d565b604080516001600160a01b039092168252519081900360200190f35b34801561012d57600080fd5b5061013661037c565b604080519115158252519081900360200190f35b34801561015657600080fd5b506100d16004803603602081101561016d57600080fd5b50356001600160a01b031661038d565b34801561018957600080fd5b506101a7600480360360208110156101a057600080fd5b50356103aa565b6040805192835260ff90911660208301528051918290030190f35b336000908152600560205260408120546004805490919081106101e157fe5b906000526020600020906002020160000154905090565b61020061037c565b61020957600080fd5b600255565b61021661037c565b61021f57600080fd5b600080546040516001600160a01b03909116907f8be0079c531659141344cd1fd0a4f28419497f9722a3daafe3b4186f6b6457e0908390a3600080546001600160a01b0319169055565b600160005b6004548110156102a8576000818152600660205260409020546001600160a01b03163314156102a057600091506102a8565b60010161026e565b506001811515146102f1576040805162461bcd60e51b815260206004820152600e60248201526d283630bcb2b91032bc34b9ba399760911b604482015290519081900360640190fd5b662386f26fc10000341015610346576040805162461bcd60e51b8152602060048201526016602482015275283630bcb2b91030b63932b0b23c9032bc34b9ba399760511b604482015290519081900360640190fd5b6000670de0b6b3a764000060035434028161035d57fe5b049050610369816103d8565b5050565b6000546001600160a01b031690565b6000546001600160a01b0316331490565b61039561037c565b61039e57600080fd5b6103a7816104cb565b50565b600481815481106103b757fe5b60009182526020909120600290910201805460019091015490915060ff1682565b604080518082018252828152600060208083018281526004805460018101825581855294517f8a35acfbc15ff81a39ae7d344fd709f28e8600b4aa8c65c6b64bfe7fe36bd19b60029096029586015590517f8a35acfbc15ff81a39ae7d344fd709f28e8600b4aa8c65c6b64bfe7fe36bd19c909401805460ff191660ff909516949094179093558254338084526005835285842060001992830190559354018252600681529083902080546001600160a01b031916831790558251918252810183905281517f6b8fe0f067804a78a12efa88b8428446c8d8a703d5604dffc63ac27fcbdcfd0d929181900390910190a150565b6001600160a01b0381166104de57600080fd5b600080546040516001600160a01b03808516939216917f8be0079c531659141344cd1fd0a4f28419497f9722a3daafe3b4186f6b6457e091a3600080546001600160a01b0319166001600160a01b039290921691909117905556fea265627a7a7231582018904636fcba63d9844c038f402f7134483d6eb43d7b8ee41be5fdd647c9ec9164736f6c634300050b0032",
    "sourcePath": "/media/adityachandak/Local Disk/Projects/InOut/repo/doPatti/contracts/src/playerfactory.sol",
    "compiler": {
        "name": "solc",
        "version": "0.5.11+commit.c082d0b4"
    },
    "functionHashes": {
        "_setCoinChange(uint256)": "2bf3312e",
        "getCoins()": "13c390ef",
        "isOwner()": "8f32d59b",
        "newPlayer()": "75479c34",
        "owner()": "8da5cb5b",
        "players(uint256)": "f71d96cb",
        "renounceOwnership()": "715018a6",
        "transferOwnership(address)": "f2fde38b"
    },
    "gasEstimates": {
        "creation": {
            "codeDepositCost": "278000",
            "executionCost": "82089",
            "totalCost": "360089"
        },
        "external": {
            "_setCoinChange(uint256)": "20479",
            "getCoins()": "978",
            "isOwner()": "449",
            "newPlayer()": "infinite",
            "owner()": "437",
            "players(uint256)": "1062",
            "renounceOwnership()": "22437",
            "transferOwnership(address)": "22602"
        },
        "internal": {
            "_createPlayer(uint256)": "infinite"
        }
    }
}