{
  "contractName": "HelloWorld",
  "abi": [
    {
      "constant": false,
      "inputs": [],
      "name": "getAge",
      "outputs": [
        {
          "name": "",
          "type": "uint256"
        }
      ],
      "payable": false,
      "stateMutability": "nonpayable",
      "type": "function"
    },
    {
      "constant": false,
      "inputs": [
        {
          "name": "_age",
          "type": "uint256"
        }
      ],
      "name": "setAge",
      "outputs": [],
      "payable": false,
      "stateMutability": "nonpayable",
      "type": "function"
    }
  ],
  "bytecode": "0x6080604052601460005534801561001557600080fd5b5060bd806100246000396000f3fe6080604052348015600f57600080fd5b506004361060325760003560e01c8063967e6e65146037578063d5dcf127146053575b600080fd5b603d607e565b6040518082815260200191505060405180910390f35b607c60048036036020811015606757600080fd5b81019080803590602001909291905050506087565b005b60008054905090565b806000819055505056fea165627a7a7230582013b73d06ea53677c51c867cec3ce2b2589185e10bdafa1bb9ba109caa38cd65a0029",
  "source": "pragma solidity ^0.5.8;\n\ncontract HelloWorld   {\n    uint age = 20;\n    \n    function getAge() public returns (uint) {\n        return age;\n    }\n    \n    function setAge(uint _age) public {\n        age = _age;\n    }\n}",
  "sourcePath": "/home/yash/React/doPatti/smartContracts/HelloWorld/contracts/HelloWorld.sol",
  "compiler": {
    "name": "solc",
    "version": "0.5.8+commit.23d335f2.Emscripten.clang"
  },
  "schemaVersion": "3.0.16",
  "updatedAt": "2019-10-20T05:30:21.843Z",
  "devdoc": {
    "methods": {}
  },
  "userdoc": {
    "methods": {}
  }
}